S01200004C43445F4B65795061642E73726563A2
S11300000C942A000C943F000C943F000C943F0085
S11300100C943F000C943F000C943F000C943F0060
S11300200C943F000C943F000C943F000C943F0050
S11300300C943F000C943F000C943F000C943F0040
S11300400C943F000C943F000C943F000C943F0030
S11300500C943F0011241FBECFE5D8E0DEBFCDBF16
S113006010E0A0E6B0E0E6E0F6E002C005900D92F4
S1130070A037B107D9F70E94F6020C9401030C943F
S113008000004423B9F1413009F06BC0813089F09C
S113009028F08230C9F0833011F108952AB381E049
S11300A090E002C0880F991F6A95E2F7822B8ABB01
S11300B0089527B381E090E002C0880F991F6A95E4
S11300C0E2F7822B87BB089524B381E090E002C05D
S11300D0880F991F6A95E2F7822B84BB089521B398
S11300E081E090E002C0880F991F6A95E2F7822BA5
S11300F081BB0895813091F028F08230D9F08330AB
S113010029F108952AB381E090E002C0880F991F75
S11301106A95E2F7809582238ABB089527B381E02C
S113012090E002C0880F991F6A95E2F780958223B8
S113013087BB089524B381E090E002C0880F991F23
S11301406A95E2F78095822384BB089521B381E008
S113015090E002C0880F991F6A95E2F78095822388
S113016081BB08954423B9F1413009F06BC081305B
S113017089F028F08230C9F0833011F108952BB34F
S113018081E090E002C0880F991F6A95E2F7822B04
S11301908BBB089528B381E090E002C0880F991FBB
S11301A06A95E2F7822B88BB089525B381E090E03D
S11301B002C0880F991F6A95E2F7822B85BB0895C8
S11301C022B381E090E002C0880F991F6A95E2F79C
S11301D0822B82BB0895813091F028F08230D9F0CF
S11301E0833029F108952BB381E090E002C0880F99
S11301F0991F6A95E2F7809582238BBB089528B3F3
S113020081E090E002C0880F991F6A95E2F780951B
S1130210822388BB089525B381E090E002C0880F53
S1130220991F6A95E2F78095822385BB089522B3CE
S113023081E090E002C0880F991F6A95E2F78095EB
S1130240822382BB0895813089F028F08230C9F07E
S1130250833011F1089589B390E002C09595879594
S11302606A95E2F78170FA018083089586B390E07D
S113027002C0959587956A95E2F78170FA018083AB
S1130280089583B390E002C0959587956A95E2F747
S11302908170FA018083089580B390E002C095953F
S11302A087956A95E2F78170FA0180830895813019
S11302B089F028F08230C9F0833011F108952BB30E
S11302C081E090E002C0880F991F6A95E2F7822BC3
S11302D08BBB089528B381E090E002C0880F991F7A
S11302E06A95E2F7822B88BB089525B381E090E0FC
S11302F002C0880F991F6A95E2F7822B85BB089587
S113030022B381E090E002C0880F991F6A95E2F75A
S1130310822B82BB089541E060E083E00E944100AB
S113032041E061E083E00E94410041E062E083E05B
S11303300E94410041E063E083E00E94410040E00C
S113034064E083E00E94410040E065E083E00E94B5
S1130350410040E066E083E00E94410040E067E045
S113036083E00E94410064E083E00E94570165E05D
S113037083E00E94570166E083E00E94570167E032
S113038083E00E94570141E060E083E00E94B200F4
S113039041E061E083E00E94B20041E062E083E07A
S11303A00E94B20041E063E083E00E94B20008953D
S11303B0BF92CF92DF92EF92FF920F931F93CF934E
S11303C0DF931F92CDB7DEB719820F2EF0E6CF2E42
S11303D0F0E0DF2EF02DB12C00E040E0602F83E050
S11303E00E94B200760114E0AE014F5F5F4F612FAF
S11303F083E00E9423018981811112C0F701B0803A
S1130400AE014F5F5F4F612F83E00E94230189811A
S11304108823B1F38FE39CE90197F1F700C0000052
S11304201F5F94E0E90EF11C1830F1F641E0602FF3
S113043083E00E94B2000F5FEFEFCE1ADE0A0430B1
S113044061F68B2D0F90DF91CF911F910F91FF904B
S1130450EF90DF90CF90BF900895CF93C82F40E0E6
S113046061E081E00E94B20040E062E081E00E942D
S1130470B20040E063E081E00E94B2008BB39C2FA5
S1130480907F8F70892B8BBB41E063E081E00E94F9
S1130490B2008FE99FE00197F1F700C0000040E04F
S11304A063E081E00E94B2002BB330E1C39FC0013E
S11304B01124922F9F70892B8BBB41E063E081E074
S11304C00E94B2008FE99FE00197F1F700C000009D
S11304D040E063E081E00E94B2008FE19EE4019776
S11304E0F1F700C00000CF91089541E061E081E0A0
S11304F00E94410041E062E081E00E94410041E04D
S113050063E081E00E94410041E064E080E00E94F9
S1130510410041E065E080E00E94410041E066E086
S113052080E00E94410041E067E080E00E944100D9
S11305302FEF81EE94E0215080409040E1F700C01D
S1130540000083E30E942D0282E30E942D0288E2D0
S11305500E942D028CE00E942D0281E00E942D0257
S113056086E00E942D0282E00E942D020895CF931E
S1130570C82F41E061E081E00E94B20040E062E007
S113058081E00E94B20040E063E081E00E94B2009A
S11305908C2F807F8BBB41E063E081E00E94B2003E
S11305A08FE99FE00197F1F700C0000040E063E0AD
S11305B081E00E94B200C295C07FCBBB41E063E002
S11305C081E00E94B2008FE99FE00197F1F700C03B
S11305D0000040E063E081E00E94B2008FE19EE40D
S11305E00197F1F700C00000CF9108950E947502B1
S11305F00E948B010E94D8018823E1F30E94B70274
S1090600F9CFF894FFCFCE
S11306063132334134353642373839432A3023447C
S9030000FC
