:100000000C942A000C9447000C9447000C94470071
:100010000C9447000C9447000C9447000C94470044
:100020000C9447000C9447000C9447000C94B503C3
:100030000C9447000C9447000C9447000C94470024
:100040000C9447000C9447000C9447000C94470014
:100050000C94470011241FBECFE5D8E0DEBFCDBF12
:1000600010E0A0E6B0E0EEE0FAE002C005900D92EC
:10007000A239B107D9F720E0A2E9B0E001C01D9292
:10008000A839B207E1F70E948B040C9405050C9483
:100090000000369A0895CF93DF93EC010E94490047
:1000A000349BFECF24B135B14AEF429FC001439F3C
:1000B000900D1124892F8695869588831982DF916A
:1000C000CF910895389A39983A983B983C9808957A
:1000D000309A319A329A08953E9A3F9A08950E9432
:1000E0006C000E9462003D980E946800359A3B981F
:1000F000379A0895442379F1413009F05FC0813087
:1001000079F028F08230A9F08330E1F008952AB325
:1001100081E090E001C0880F6A95EAF7822B2CC03D
:1001200027B381E090E001C0880F6A95EAF7822B3F
:100130002EC024B381E090E001C0880F6A95EAF7F1
:10014000822B30C021B381E090E001C0880F6A9516
:10015000EAF7822B32C0813089F028F08230C9F072
:10016000833011F108952AB381E090E001C0880F37
:100170006A95EAF7809582238ABB089527B381E0C8
:1001800090E001C0880F6A95EAF78095822387BBCB
:10019000089524B381E090E001C0880F6A95EAF7E2
:1001A0008095822384BB089521B381E090E001C053
:1001B000880F6A95EAF78095822381BB08954423CE
:1001C00079F1413009F05FC0813079F028F0823058
:1001D000A9F08330E1F008952BB381E090E001C0F5
:1001E000880F6A95EAF7822B2CC028B381E090E053
:1001F00001C0880F6A95EAF7822B2EC025B381E0F3
:1002000090E001C0880F6A95EAF7822B30C022B3D4
:1002100081E090E001C0880F6A95EAF7822B32C036
:10022000813089F028F08230C9F0833011F10895CF
:100230002BB381E090E001C0880F6A95EAF78095C2
:1002400082238BBB089528B381E090E001C0880F22
:100250006A95EAF78095822388BB089525B381E0EB
:1002600090E001C0880F6A95EAF78095822385BBEC
:10027000089522B381E090E001C0880F6A95EAF703
:100280008095822382BB0895FA01813041F028F0E5
:10029000823039F0833039F0089589B305C086B3D0
:1002A00003C083B301C080B390E002C095958795E9
:1002B0006A95E2F7817080830895813081F028F09B
:1002C0008230B9F08330F9F008952BB381E090E0EB
:1002D00001C0880F6A95EAF7822B8BBB089528B37B
:1002E00081E090E001C0880F6A95EAF7822B88BB15
:1002F000089525B381E090E001C0880F6A95EAF780
:10030000822B85BB089522B381E090E001C0880F65
:100310006A95EAF7822B82BB0895813081F028F03C
:100320008230B9F08330F9F008952BB381E090E08A
:1003300001C0880F6A95EAF782278BBB089528B31E
:1003400081E090E001C0880F6A95EAF7822788BBB8
:10035000089525B381E090E001C0880F6A95EAF71F
:10036000822785BB089522B381E090E001C0880F09
:100370006A95EAF7822782BB089541E060E083E056
:100380000E947A0041E061E083E00E947A0041E04F
:1003900062E083E00E947A0041E063E083E00E9433
:1003A0007A0040E064E083E00E947A0040E065E08B
:1003B00083E00E947A0040E066E083E00E947A00D9
:1003C00040E067E083E00E947A0064E083E00E94FE
:1003D0005D0165E083E00E945D0166E083E00E94CC
:1003E0005D0167E083E00E945D0141E060E083E041
:1003F0000E94DF0041E061E083E00E94DF0041E015
:1004000062E083E00E94DF0041E063E083E00C945F
:10041000DF00BF92CF92DF92EF92FF920F931F9374
:10042000CF93DF931F92CDB7DEB7198286E6E82E11
:1004300080E0F82EB12C10E040E0612F83E00E94B4
:10044000DF00670104E0AE014F5F5F4F602F83E084
:100450000E9444018981811113C0F601B080898115
:10046000811108C0AE014F5F5F4F602F83E00E9493
:100470004401F5CF8FE39CE90197F1F700C000003C
:100480000F5F94E0C90ED11C0830E9F641E0612FFE
:1004900083E00E94DF001F5FEFEFEE1AFE0A1430C8
:1004A00059F68B2D0F90DF91CF911F910F91FF90F7
:1004B000EF90DF90CF90BF900895CF93C82F40E08A
:1004C00061E081E00E94DF0040E062E081E00E94A4
:1004D000DF0040E063E081E00E94DF008BB39C2FEF
:1004E000907F8F70892B8BBB41E063E081E00E949D
:1004F000DF008FE99FE00197F1F700C0000040E0C6
:1005000063E081E00E94DF002BB330E1C39FC001B4
:100510001124922F9F70892B8BBB41E063E081E017
:100520000E94DF008FE99FE00197F1F700C0000013
:1005300040E063E081E00E94DF008FE19EE40197EC
:10054000F1F700C00000CF91089541E061E081E043
:100550000E947A0041E062E081E00E947A0041E07E
:1005600063E081E00E947A0041E064E080E00E9464
:100570007A0041E065E080E00E947A0041E066E0B8
:1005800080E00E947A0041E067E080E00E947A000B
:100590002FEF81EE94E0215080409040E1F700C0C1
:1005A000000083E30E945D0282E30E945D0288E214
:1005B0000E945D028CE00E945D0281E00E945D026B
:1005C00086E00E945D0282E00C945D02CF93C82F0A
:1005D00041E061E081E00E94DF0040E062E081E014
:1005E0000E94DF0040E063E081E00E94DF008C2F8A
:1005F000807F8BBB41E063E081E00E94DF008FE9F8
:100600009FE00197F1F700C0000040E063E081E067
:100610000E94DF00C295C07FCBBB41E063E081E078
:100620000E94DF008FE99FE00197F1F700C0000012
:1006300040E063E081E00E94DF008FE19EE40197EB
:10064000F1F700C00000CF9108950F931F93CF934F
:100650008C01C0E0F801EC0FF11D8081882321F0AE
:100660000E94E602CF5FF6CFCF911F910F910895C0
:1006700081E00C945D024F925F926F927F928F9215
:100680009F92AF92BF92CF92DF92EF92FF920F9321
:100690001F93CF93DF934B015C0197FF0BC08DE25B
:1006A0000E94E602B094A09490948094811C911CC6
:1006B000A11CB11CC12CD12C7601C3942AE0422E7E
:1006C000512C612C712CC501B401A30192010E942F
:1006D000AA04D22FC32FF42FE52F4B015C01672B07
:1006E000682B692B89F0AAE0B0E0A70196010E946F
:1006F000C90475016401C60ED71EE81EF91E8D2EB1
:100700009C2EAF2EBE2EDFCF8AE0882E912CA12CFE
:10071000B12C82E0C816D104E104F1048CF0C701C9
:10072000B601A50194010E94AA048901D42FC52F06
:1007300080E3860F0E94E6026801ED2EFC2EE9CFD1
:10074000DF91CF911F910F91FF90EF90DF90CF90AD
:10075000BF90AF909F908F907F906F905F904F90E1
:10076000089562E082E00C948D011F920F920FB603
:100770000F9211242F933F934F935F936F937F9327
:100780008F939F93AF93BF93EF93FF9380919200CA
:100790009091930001969093930080939200209102
:1007A0009600309197008217930749F48091940046
:1007B00082BF10929300109292000E94B103FF91A9
:1007C000EF91BF91AF919F918F917F916F915F91C9
:1007D0004F913F912F910F900FBE0F901F90189542
:1007E000AF92BF92CF92DF92FF920F931F93CF935E
:1007F000DF93CDB7DEB72E970FB6F894DEBF0FBEEE
:10080000CDBF1E861D860E94A6040E94A5020E94DE
:10081000BD0186E0E0E6F0E0DE01179601900D9262
:100820008A95E1F7FE01319686E0DF011D928A95F7
:10083000E9F7BFEF21EE84E0B15020408040E1F7BE
:1008400000C000008F015E0197E0A90EB11C6F018E
:100850000E940902F82ED6018D936D01BFEFE1EEE3
:10086000F4E0B150E040F040E1F700C000000E9429
:10087000E6022FEF81EE94E0215080409040E1F7B6
:1008800000C00000AC14BD0419F78C85F8121AC022
:1008900086E790E00E942503CE010D960E94A804F1
:1008A0000E9438036D857E8580E090E00E943B03C6
:1008B000AFEFB1EEE4E0A150B040E040E1F700C09E
:1008C000000019C00E943803D8018D918D010E944B
:1008D000E602A016B106C1F7BFEFE1EEF4E0B150B9
:1008E000E040F040E1F700C000000E94380382E8D9
:1008F00090E00E9425032E960FB6F894DEBF0FBE3F
:10090000CDBFDF91CF911F910F91FF90DF90CF90DE
:10091000BF90AF900895CF93DF9300D0CDB7DEB7EF
:100920000E94F0031A8219820E94A6040E94A50266
:10093000CE0101960E94A8042FEF81EE94E0215091
:1009400080409040E1F700C00000F2CF0C946F00AF
:100950000C944B00052E97FB1EF400940E94C104DA
:1009600057FD07D00E94D40407FC03D04EF40C942A
:10097000C10450954095309521953F4F4F4F5F4FA3
:10098000089590958095709561957F4F8F4F9F4FFB
:1009900008950E94F604A59F900DB49F900DA49F0A
:1009A000800D911D11240895A1E21A2EAA1BBB1BD4
:1009B000FD010DC0AA1FBB1FEE1FFF1FA217B3072B
:1009C000E407F50720F0A21BB30BE40BF50B661F41
:1009D000771F881F991F1A9469F760957095809505
:1009E00090959B01AC01BD01CF010895A29FB0017C
:1009F000B39FC001A39F700D811D1124911DB29F53
:0E0A0000700D811D1124911D0895F894FFCFF3
:100A0E000504030201073134372A323538303336C4
:100A1E0039234142434450617373206D617463689E
:100A2E0020005061737320496E636F727265637438
:020A3E000000B6
:00000001FF
