S01200004C43445F4B65795061642E73726563A2
S11300000C942A000C943F000C943F000C943F0085
S11300100C943F000C943F000C943F000C943F0060
S11300200C943F000C943F000C943F000C943F0050
S11300300C943F000C943F000C943F000C943F0040
S11300400C943F000C943F000C943F000C943F0030
S11300500C943F0011241FBECFE5D8E0DEBFCDBF16
S113006010E0A0E6B0E0E8EDF6E002C005900D92E5
S1130070A036B107D9F70E94E8020C946A030C94E5
S113008000003E9A3F98389A3D98359A309A319AB2
S1130090329A3398379A0895369A349BFECF64B1D6
S11300A075B144EF51E0649F9001659F300D749FDA
S11300B0300D1124232F26952695FC0120831182CF
S11300C00895442379F1413009F05FC0813079F01B
S11300D028F08230A9F08330E1F008952AB381E05A
S11300E090E001C0880F6A95EAF7822B2CC027B3F1
S11300F081E090E001C0880F6A95EAF7822B2EC058
S113010024B381E090E001C0880F6A95EAF7822B5E
S113011030C021B381E090E001C0880F6A95EAF70E
S1130120822B32C0813089F028F08230C9F08330CC
S113013011F108952AB381E090E001C0880F6A9517
S1130140EAF7809582238ABB089527B381E090E083
S113015001C0880F6A95EAF78095822387BB0895CA
S113016024B381E090E001C0880F6A95EAF7809596
S1130170822384BB089521B381E090E001C0880FFD
S11301806A95EAF78095822381BB0895442379F127
S1130190413009F05FC0813079F028F08230A9F055
S11301A08330E1F008952BB381E090E001C0880F23
S11301B06A95EAF7822B2CC028B381E090E001C055
S11301C0880F6A95EAF7822B2EC025B381E090E070
S11301D001C0880F6A95EAF7822B30C022B381E010
S11301E090E001C0880F6A95EAF7822B32C0813013
S11301F089F028F08230C9F0833011F108952BB3CF
S113020081E090E001C0880F6A95EAF78095822327
S11302108BBB089528B381E090E001C0880F6A95F4
S1130220EAF78095822388BB089525B381E090E0A6
S113023001C0880F6A95EAF78095822385BB0895EB
S113024022B381E090E001C0880F6A95EAF78095B7
S1130250822382BB0895813081F028F08230B9F086
S11302608330F9F008952BB381E090E001C0880F4A
S11302706A95EAF7822B8BBB089528B381E090E05E
S113028001C0880F6A95EAF7822B88BB089525B3CD
S113029081E090E001C0880F6A95EAF7822B85BB64
S11302A0089522B381E090E001C0880F6A95EAF7CF
S11302B0822B82BB089541E060E083E00E946100EC
S11302C041E061E083E00E94610041E062E083E09C
S11302D00E94610041E063E083E00E94610040E02D
S11302E064E083E00E94610040E065E083E00E94F6
S11302F0610040E066E083E00E94610040E067E066
S113030083E00E94610064E083E00E942B0165E0C9
S113031083E00E942B0166E083E00E942B0167E0EA
S113032083E00E942B0141E060E083E00E94C6006C
S113033041E061E083E00E94C60041E062E083E0C6
S11303400E94C60041E063E083E00C94C600CF93B2
S1130350C82F40E061E081E00E94C60040E062E016
S113036081E00E94C60040E063E081E00E94C60094
S11303708BB39C2F907F8F70892B8BBB41E063E004
S113038081E00E94C6008FE99FE00197F1F700C069
S1130390000040E063E081E00E94C6002BB330E13E
S11303A0C39FC0011124922F9F70892B8BBB41E006
S11303B063E081E00E94C6008FE99FE00197F1F7B6
S11303C000C0000040E063E081E00E94C6008FE1CD
S11303D09EE40197F1F700C00000CF91089541E039
S11303E061E081E00E94610041E062E081E00E94FE
S11303F0610041E063E081E00E94610041E064E06B
S113040080E00E94610041E065E080E00E946100BC
S113041041E066E080E00E94610041E067E080E046
S11304200E9461002FEF81EE94E0215080409040C3
S1130430E1F700C0000083E30E94A70182E30E9469
S1130440A70188E20E94A7018CE00E94A70181E035
S11304500E94A70186E00E94A70182E00C94A701F4
S1130460CF93C82F41E061E081E00E94C60040E0E4
S113047062E081E00E94C60040E063E081E00E9407
S1130480C6008C2F807F8BBB41E063E081E00E943B
S1130490C6008FE99FE00197F1F700C0000040E03B
S11304A063E081E00E94C600C295C07FCBBB41E0FF
S11304B063E081E00E94C6008FE99FE00197F1F7B5
S11304C000C0000040E063E081E00E94C6008FE1CC
S11304D09EE40197F1F700C00000CF91089581E0F8
S11304E00C94A7014F925F926F927F928F929F928A
S11304F0AF92BF92CF92DF92EF92FF920F931F932E
S1130500CF93DF934B015C0197FF0BC08DE20E94F8
S11305103002B094A09490948094811C911CA11CEE
S1130520B11CC12CD12C7601C3942AE0422E512C4B
S1130530612C712CC501B401A30192010E940F0327
S1130540D22FC32FF42FE52F4B015C01672B682BAF
S1130550692B89F0AAE0B0E0A70196010E942E035E
S113056075016401C60ED71EE81EF91E8D2E9C2E41
S1130570AF2EBE2EDFCF8AE0882E912CA12CB12C79
S113058082E0C816D104E104F1048CF0C701B6017D
S1130590A50194010E940F038901D42FC52F80E384
S11305A0860F0E9430026801ED2EFC2EE9CFDF9108
S11305B0CF911F910F91FF90EF90DF90CF90BF905C
S11305C0AF909F908F907F906F905F904F90089521
S11305D0CF93DF9300D0CDB7DEB70E94EF010E9426
S11305E05B010E940B031A821982CE0101960E94BC
S11305F00D030E946F0269817A8180E090E00E947D
S113060072022FEF89E698E1215080409040E1F793
S113061000C00000EACF0C9441000C944C00052E5D
S113062097FB1EF400940E94260357FD07D00E94F6
S1130630390307FC03D04EF40C94260350954095DF
S1130640309521953F4F4F4F5F4F0895909580957A
S1130650709561957F4F8F4F9F4F08950E945B0364
S1130660A59F900DB49F900DA49F800D911D112402
S11306700895A1E21A2EAA1BBB1BFD010DC0AA1FDF
S1130680BB1FEE1FFF1FA217B307E407F50720F0F7
S1130690A21BB30BE40BF50B661F771F881F991F72
S11306A01A9469F760957095809590959B01AC01BB
S11306B0BD01CF010895A29FB001B39FC001A39FC4
S11306C0700D811D1124911DB29F700D811D112487
S10B06D0911D0895F894FFCF79
S9030000FC
