S01200004C43445F4B65795061642E73726563A2
S11300000C942A000C943F000C943F000C943F0085
S11300100C943F000C943F000C943F000C943F0060
S11300200C943F000C943F000C943F000C943F0050
S11300300C943F000C943F000C943F000C943F0040
S11300400C943F000C943F000C943F000C943F0030
S11300500C943F0011241FBECFE5D8E0DEBFCDBF16
S113006010E0A0E6B0E0E4E6F6E002C005900D92F0
S1130070A237B107D9F70E94DE020C9430030C9426
S11300800000442379F1413009F05FC0813079F0F8
S113009028F08230A9F08330E1F008952AB381E09A
S11300A090E001C0880F6A95EAF7822B2CC027B331
S11300B081E090E001C0880F6A95EAF7822B2EC098
S11300C024B381E090E001C0880F6A95EAF7822B9F
S11300D030C021B381E090E001C0880F6A95EAF74F
S11300E0822B32C0813089F028F08230C9F083300D
S11300F011F108952AB381E090E001C0880F6A9558
S1130100EAF7809582238ABB089527B381E090E0C3
S113011001C0880F6A95EAF78095822387BB08950A
S113012024B381E090E001C0880F6A95EAF78095D6
S1130130822384BB089521B381E090E001C0880F3D
S11301406A95EAF78095822381BB0895442379F167
S1130150413009F05FC0813079F028F08230A9F095
S11301608330E1F008952BB381E090E001C0880F63
S11301706A95EAF7822B2CC028B381E090E001C095
S1130180880F6A95EAF7822B2EC025B381E090E0B0
S113019001C0880F6A95EAF7822B30C022B381E050
S11301A090E001C0880F6A95EAF7822B32C0813053
S11301B089F028F08230C9F0833011F108952BB30F
S11301C081E090E001C0880F6A95EAF78095822368
S11301D08BBB089528B381E090E001C0880F6A9535
S11301E0EAF78095822388BB089525B381E090E0E7
S11301F001C0880F6A95EAF78095822385BB08952C
S113020022B381E090E001C0880F6A95EAF78095F7
S1130210822382BB0895FA01813041F028F08230B4
S113022039F0833039F0089589B305C086B303C02B
S113023083B301C080B390E002C0959587956A9519
S1130240E2F7817080830895813081F028F0823054
S1130250B9F08330F9F008952BB381E090E001C048
S1130260880F6A95EAF7822B8BBB089528B381E047
S113027090E001C0880F6A95EAF7822B88BB089545
S113028025B381E090E001C0880F6A95EAF7822BDC
S113029085BB089522B381E090E001C0880F6A9580
S11302A0EAF7822B82BB089541E060E083E00E947C
S11302B0410041E061E083E00E94410041E062E0EE
S11302C083E00E94410041E063E083E00E9441003A
S11302D040E064E083E00E94410040E065E083E0A8
S11302E00E94410040E066E083E00E94410040E05B
S11302F067E083E00E94410064E083E00E942401FF
S113030065E083E00E94240166E083E00E9424010A
S113031067E083E00E94240141E060E083E00E9402
S1130320A60041E061E083E00E94A60041E062E0B3
S113033083E00E94A60041E063E083E00C94A60001
S1130340BF92CF92DF92EF92FF920F931F93CF93BE
S1130350DF931F92CDB7DEB7198280E6E82E80E0E6
S1130360F82EB12C10E040E0612F83E00E94A6003B
S1130370670104E0AE014F5F5F4F602F83E00E948E
S11303800B018981811113C0F601B080898181112B
S113039008C0AE014F5F5F4F602F83E00E940B01E6
S11303A0F5CF8FE39CE90197F1F700C000000F5FE0
S11303B094E0C90ED11C0830E9F641E0612F83E0D6
S11303C00E94A6001F5FEFEFEE1AFE0A143059F6E2
S11303D08B2D0F90DF91CF911F910F91FF90EF9094
S11303E0DF90CF90BF900895CF93C82F40E061E095
S11303F081E00E94A60040E062E081E00E94A60045
S113040040E063E081E00E94A6008BB39C2F907FC4
S11304108F70892B8BBB41E063E081E00E94A600D2
S11304208FE99FE00197F1F700C0000040E063E02E
S113043081E00E94A6002BB330E1C39FC0011124C8
S1130440922F9F70892B8BBB41E063E081E00E9477
S1130450A6008FE99FE00197F1F700C0000040E09B
S113046063E081E00E94A6008FE19EE40197F1F72A
S113047000C00000CF91089541E061E081E00E9456
S1130480410041E062E081E00E94410041E063E01C
S113049081E00E94410041E064E080E00E9441006C
S11304A041E065E080E00E94410041E066E080E0D8
S11304B00E94410041E067E080E00E9441002FEF8C
S11304C081EE94E0215080409040E1F700C00000AC
S11304D083E30E94F40182E30E94F40188E20E9413
S11304E0F4018CE00E94F40181E00E94F40186E0B2
S11304F00E94F40182E00C94F401CF93C82F41E0F0
S113050061E081E00E94A60040E062E081E00E9498
S1130510A60040E063E081E00E94A6008C2F807F6B
S11305208BBB41E063E081E00E94A6008FE99FE07D
S11305300197F1F700C0000040E063E081E00E9411
S1130540A600C295C07FCBBB41E063E081E00E947E
S1130550A6008FE99FE00197F1F700C0000040E09A
S113056063E081E00E94A6008FE19EE40197F1F729
S113057000C00000CF910895C0E02AE0C22ED12C23
S1130580E12CF12CA70196010E94EF02611571057F
S11305908105910551F0EC2FF0E0E059FF4F605DCB
S11305A06083B901CA01CF5FEDCFEC2FF0E0E059D1
S11305B0FF4F80810E947D02C150F7CF0E943C0210
S11305C00E94540160E870E080E090E00E94BC0268
S11305D00E94A0018823E1F30E947D02F9CF052E39
S11305E097FB1EF400940E94060357FD07D00E9457
S11305F00E0307FC03D04EF40C940603509540956B
S1130600309521953F4F4F4F5F4F089590958095BA
S1130610709561957F4F8F4F9F4F0895A1E21A2ED9
S1130620AA1BBB1BFD010DC0AA1FBB1FEE1FFF1F92
S1130630A217B307E407F50720F0A21BB30BE40BE2
S1130640F50B661F771F881F991F1A9469F7609529
S11306507095809590959B01AC01BD01CF010895E3
S1070660F894FFCF38
S11306643132334134353642373839432A3023441E
S1050674000080
S9030000FC
